:100000000C942A000C9413080C941B2D0C943D089E
:100010000C9447000C9447000C9447000C94470044
:100020000C9447000C9447000C9447000C942A2E23
:100030000C9447000C9447000C9447000C94470024
:100040000C946B0E0C9447000C9447000C944700E2
:100050000C94470011241FBECFE5D8E0DEBFCDBF12
:1000600011E0A0E6B0E0E6E9FEE502C005900D92E1
:10007000AE39B107D9F711E0AEE9B1E001C01D9288
:10008000AE3DB107E1F70E945B260C94492F0C941A
:100090000000EF92FF920F931F937B018C0120E0F1
:1000A00030E040E05FE40E94F50388238CF0C80153
:1000B000B70120E030E040E05FE40E94C1010E940F
:1000C000B3049B01AC01205030404040504806C072
:1000D000C801B7010E94B3049B01AC01B901CA0178
:1000E0001F910F91FF90EF900895A0E0B0E0EBE733
:1000F000F0E00C94BB2EDC012B01FA019C919230B4
:1001000008F439C1EB018881823008F433C194309E
:1001100069F4843009F02FC111969C91119789815F
:10012000981709F428C1A3E7B0E025C1843009F489
:1001300021C18230A9F4923009F01DC19A01AD01AC
:1001400088E0EA010990AE01E90109929E0181501F
:10015000C1F7E201898111969C918923818308C1AD
:10016000923009F407C112962D903C901397EB0141
:100170008A819B811496AD90BD90CD90DC901797AD
:10018000EC80FD800E811F819101281B390BB90184
:1001900037FF04C066277727621B730B6032710537
:1001A0000CF061C0121613066CF537014801062EDB
:1001B00004C096948794779467940A94D2F721E0C8
:1001C00030E040E050E004C0220F331F441F551FB1
:1001D0006A95D2F721503040404050402E213F21B7
:1001E00040235123211531054105510521F021E01E
:1001F00030E040E050E079018A01E628F72808293C
:1002000019293CC0232BD1F1260E371E350146019A
:10021000062E04C096948794779467940A94D2F734
:1002200021E030E040E050E004C0220F331F441FC3
:10023000551F6A95D2F721503040404050402A2146
:100240003B214C215D21211531054105510521F04E
:1002500021E030E040E050E059016A01A628B728CB
:10026000C828D9280BC0821593052CF01C01AA249C
:10027000BB24650103C0EE24FF24870111969C91E5
:10028000D20111968C91981709F445C0992339F041
:10029000A80197012A193B094C095D0906C0A6016E
:1002A00095012E193F09400B510B57FD08C01182D3
:1002B0003382228224833583468357831DC081E0A5
:1002C00081833382228288279927DC01821B930B4A
:1002D000A40BB50B84839583A683B7830DC0220F2F
:1002E000331F441F551F24833583468357838281E0
:1002F000938101979383828324813581468157813D
:10030000DA01C9010197A109B1098F5F9F4FAF4F72
:10031000BF4328F30BC0918333822282EA0CFB1C7B
:100320000C1D1D1DE482F5820683178383E0808304
:10033000248135814681578157FF1AC0C901AA27F8
:1003400097FDA095BA2F81709070A070B0705695EF
:10035000479537952795822B932BA42BB52B848318
:100360009583A683B7838281938101969383828349
:10037000DF0101C0D201CD01CDB7DEB7E2E10C94BF
:10038000D72EA0E2B0E0E7ECF1E00C94C72E698331
:100390007A838B839C832D833E834F835887E9E048
:1003A000EE2EF12CEC0EFD1ECE010196B7010E943F
:1003B0002B068E010F5E1F4FCE010596B8010E94DD
:1003C0002B068A8991E089278A8BC701B801AE0183
:1003D000475E5F4F0E9475000E945605A096E6E0BA
:1003E0000C94E32EA0E2B0E0E8EFF1E00C94C72E0D
:1003F00069837A838B839C832D833E834F835887C5
:10040000F9E0EF2EF12CEC0EFD1ECE010196B701A6
:100410000E942B068E010F5E1F4FCE010596B8017C
:100420000E942B06C701B801AE01475E5F4F0E94D4
:1004300075000E945605A096E6E00C94E32EA0E21B
:10044000B0E0E5E2F2E00C94BB2E69837A838B8303
:100450009C832D833E834F835887CE010196BE0136
:10046000675F7F4F0E942B06CE010596BE016F5E2F
:100470007F4F0E942B069985923088F089898230BF
:10048000C8F0943019F4823051F404C0843029F457
:10049000923081F483E790E0C6C0923049F420E0C6
:1004A0009A858A89981321E02A87CE010996BBC0D4
:1004B000823049F420E09A858A89981321E02A8BBA
:1004C000CE014196B0C02D843E844F8458886D88FB
:1004D0007E888F88988CEE24FF248701AA24BB2471
:1004E000650140E050E060E070E0E0E0F0E0C10174
:1004F00081709070892BE9F0E60CF71C081D191D1E
:100500009A01AB012A0D3B1D4C1D5D1D80E090E062
:10051000A0E0B0E0E614F7040805190520F481E036
:1005200090E0A0E0B0E0BA01A901480F591F6A1F8E
:100530007B1FAA0CBB1CCC1CDD1C97FE08C081E0F5
:1005400090E0A0E0B0E0A82AB92ACA2ADB2A3196B6
:10055000E032F10549F0660C771C881C991C569412
:10056000479437942794C3CFFA85EA892B893C892D
:100570008B859C85280F391F2E5F3F4F17C0CA01FE
:1005800081709070892B61F016950795F794E79428
:1005900080E090E0A0E0B0E8E82AF92A0A2B1B2BC3
:1005A00076956795579547952F5F3F4F77FDE7CF36
:1005B0000CC0440F551F661F771F17FD4160EE0CDE
:1005C000FF1C001F111F21503040403090E05907A0
:1005D00090E0690790E4790760F32B8F3C8FDB0193
:1005E000CA018F779070A070B07080349105A1051A
:1005F000B10561F447FD0AC0E114F10401051105DC
:1006000029F0405C5F4F6F4F7F4F40781A8EFE1786
:1006100011F081E08A8F4D8F5E8F6F8F78A383E01A
:10062000898FCE0149960E945605A096E2E10C946E
:10063000D72EA8E1B0E0EFE1F3E00C94C32E69837C
:100640007A838B839C832D833E834F835887B9E0C5
:10065000EB2EF12CEC0EFD1ECE010196B7010E948F
:100660002B068E010F5E1F4FCE010596B8010E942A
:100670002B062985223008F47EC03989323010F4E7
:10068000B8017CC08A859A8989278A87243011F02D
:10069000223031F4231709F06EC063E770E06EC0BA
:1006A000343039F41D861E861F86188A1C861B86E8
:1006B00004C0323021F484E08987B7015FC02B8504
:1006C0003C858B899C89281B390B3C872B87ED84C3
:1006D000FE840F851889AD88BE88CF88D88CEA142F
:1006E000FB040C051D0540F4EE0CFF1C001F111F40
:1006F000215030403C872B8720E030E040E050E044
:1007000080E090E0A0E0B0E460E070E0EA14FB0478
:100710000C051D0540F0282B392B4A2B5B2BEA18C2
:10072000FB080C091D09B695A79597958795EE0CC2
:10073000FF1C001F111F6F5F7F4F6F31710531F775
:10074000DA01C9018F779070A070B0708034910584
:10075000A105B10561F427FD0AC0E114F10401050A
:10076000110529F0205C3F4F4F4F5F4F20782D87B8
:100770003E874F87588BBE01675F7F4FCB010E943A
:1007800056056896EAE00C94DF2EA8E1B0E0EBECA9
:10079000F3E00C94C72E69837A838B839C832D832B
:1007A0003E834F83588789E0E82EF12CEC0EFD1E26
:1007B000CE010196B7010E942B068E010F5E1F4FDE
:1007C000CE010596B8010E942B068985823040F043
:1007D0008989823028F0C701B8010E94A30601C0B0
:1007E0008FEF6896E6E00C94E32EA8E1B0E0EBEF23
:1007F000F3E00C94C72E69837A838B839C832D83CB
:100800003E834F83588789E0E82EF12CEC0EFD1EC5
:10081000CE010196B7010E942B068E010F5E1F4F7D
:10082000CE010596B8010E942B068985823040F0E2
:100830008989823028F0C701B8010E94A30601C04F
:100840008FEF6896E6E00C94E32EA8E1B0E0EBE2CF
:10085000F4E00C94C72E69837A838B839C832D8369
:100860003E834F83588789E0E82EF12CEC0EFD1E65
:10087000CE010196B7010E942B068E010F5E1F4F1D
:10088000CE010596B8010E942B068985823040F082
:100890008989823028F0C701B8010E94A30601C0EF
:1008A00081E06896E6E00C94E32EA8E0B0E0EBE58A
:1008B000F4E00C94C42E9B01AC0183E08983DA013F
:1008C000C9018827B7FD83959927AA27BB27B82E8A
:1008D000211531054105510519F482E089833AC09B
:1008E0008823A9F0203080E0380780E0480780E8BE
:1008F000580729F460E070E080E09FEC30C0EE24FF
:10090000FF248701E21AF30A040B150B02C07901D8
:100910008A018EE1C82ED12CDC82CB82ED82FE8250
:100920000F831887C801B7010E94070501971816A1
:10093000190684F4082E04C0EE0CFF1C001F111FC2
:100940000A94D2F7ED82FE820F831887C81AD90A5B
:10095000DC82CB82BA82CE0101960E94560528968F
:10096000E9E00C94E02EACE0B0E0E9EBF4E00C94AC
:10097000CB2E69837A838B839C83CE010196BE0143
:100980006B5F7F4F0E942B068D81823061F1823038
:1009900050F1843021F48E81882351F12EC02F81B3
:1009A000388537FD20C06E812F3131051CF066235C
:1009B000F9F023C08EE190E0821B930B29853A85E4
:1009C0004B855C8504C056954795379527958A9544
:1009D000D2F76623B1F050954095309521953F4F61
:1009E0004F4F5F4F0EC020E030E040E050E009C0C4
:1009F0002FEF3FEF4FEF5FE704C020E030E040E033
:100A000050E8B901CA012C96E2E00C94E72EEF926F
:100A1000FF920F931F937B018C0180E0E81680E02A
:100A2000F80681E0080780E0180788F48FEFE816E1
:100A3000F1040105110531F028F088E090E0A0E014
:100A4000B0E017C080E090E0A0E0B0E012C080E02D
:100A5000E81680E0F80680E0080781E0180728F033
:100A600088E190E0A0E0B0E004C080E190E0A0E088
:100A7000B0E020E230E040E050E0281B390B4A0BA8
:100A80005B0B04C016950795F794E7948A95D2F707
:100A9000F701E558FF4F8081281B310941095109B1
:100AA000C9011F910F91FF90EF900895DF92EF928F
:100AB000FF920F931F93FC01E480F580068117815C
:100AC000D1808081823048F480E090E0A0E1B0E005
:100AD000E82AF92A0A2B1B2BA5C0843009F49FC0F1
:100AE000823021F4EE24FF24870105C0E114F104D3
:100AF0000105110519F4E0E0F0E096C06281738110
:100B00009FEF623879070CF05BC022E83FEF261BAD
:100B1000370B2A3131052CF020E030E040E050E086
:100B20002AC0B801A701022E04C076956795579593
:100B300047950A94D2F781E090E0A0E0B0E004C0CD
:100B4000880F991FAA1FBB1F2A95D2F70197A109E9
:100B5000B1098E219F21A023B1230097A105B105E2
:100B600021F081E090E0A0E0B0E09A01AB01282BF9
:100B7000392B4A2B5B2BDA01C9018F779070A0705B
:100B8000B07080349105A105B10539F427FF09C083
:100B9000205C3F4F4F4F5F4F04C0215C3F4F4F4F92
:100BA0005F4FE0E0F0E02030A0E03A07A0E04A0725
:100BB000A0E45A0710F0E1E0F0E079018A0127C0D3
:100BC0006038710564F5FB01E158FF4FD801C7019A
:100BD0008F779070A070B07080349105A105B10539
:100BE00039F4E7FE0DC080E490E0A0E0B0E004C07E
:100BF0008FE390E0A0E0B0E0E80EF91E0A1F1B1F93
:100C000017FF05C016950795F794E794319687E08E
:100C100016950795F794E7948A95D1F705C0EE24C9
:100C2000FF248701EFEFF0E06E2F67956627679549
:100C3000902F9F77D794DD24D7948E2F8695492FB8
:100C4000462B582F5D29B701CA011F910F91FF90C4
:100C5000EF90DF900895FC01DB01408151812281FA
:100C6000622F6F7770E0221F2227221F9381892F26
:100C7000880F822B282F30E0991F9927991F1196F2
:100C80009C93119721153105A9F541155105610571
:100C9000710511F482E037C082E89FEF13969C93B0
:100CA0008E9312979A01AB0167E0220F331F441F06
:100CB000551F6A95D1F783E08C930DC0220F331F27
:100CC000441F551F12968D919C911397019713966F
:100CD0009C938E931297203080E0380780E048077D
:100CE00080E4580758F314962D933D934D935C93ED
:100CF000179708952F3F310579F441155105610586
:100D0000710519F484E08C93089564FF03C081E0B9
:100D10008C9312C01C9210C02F57304013963C93F6
:100D20002E93129783E08C9387E0440F551F661F24
:100D3000771F8A95D1F7706414964D935D936D93E8
:100D40007C93179708951F93DC01FB019C919230CF
:100D500008F447C08081823008F443C0943051F4D5
:100D600011961C91843099F58181682F70E0611B88
:100D700071093FC0843021F0923031F48230B9F1F2
:100D80008181882389F12DC011961C9111978230A1
:100D9000F1F081811817D9F412962D913C91139797
:100DA000828193818217930794F028173907BCF04A
:100DB00014968D919D910D90BC91A02D248135812B
:100DC00046815781281739074A075B0718F4112312
:100DD00041F00AC082179307A407B50740F4112316
:100DE00019F061E070E005C06FEF7FEF02C060E0D6
:100DF00070E0CB011F910895DF93CF930F92CDB791
:100E0000DEB78983A1E4B0E0E1E4F0E080818860AE
:100E10008C93A1E4B0E0E1E4F0E090818981892B3A
:100E20008C930F90CF91DF910895DF93CF93CDB73F
:100E3000DEB7CF91DF910895DF93CF93CDB7DEB7C3
:100E4000E1E4F0E088E18083E1E4F0E01082CF911A
:100E5000DF910895DF93CF93CDB7DEB783E060E0F5
:100E600040E00E94BB0983E061E041E00E94BB09D1
:100E7000E9E2F0E083E38083E0E4F0E01082EBE27B
:100E8000F0E01082EAE2F0E088E18083E0E4F0E064
:100E900086E88083CF91DF910895DF93CF930F92FF
:100EA000CDB7DEB78983ECE2F0E089818083EBE2A5
:100EB000F0E08081829586958770882F90E0817020
:100EC00090700097A1F3ABE2B0E0EBE2F0E080813C
:100ED00080648C930F90CF91DF910895DF93CF932F
:100EE000CDB7DEB7EBE2F0E080818823DCF7ECE2FF
:100EF000F0E08081CF91DF910895DF93CF9300D010
:100F00000F92CDB7DEB79B838A83198219820EC0F8
:100F10008981282F30E08A819B81FC01E20FF31F39
:100F200080810E944D0789818F5F89838981282F65
:100F300030E08A819B81FC01E20FF31F80818823CE
:100F400039F70F900F900F90CF91DF910895DF93B5
:100F5000CF93CDB7DEB7A3E5B0E0E3E5F0E0808165
:100F600089678C93ECE5F0E01082A9E5B0E0E9E553
:100F7000F0E0808182608C93CF91DF910895DF93C0
:100F8000CF93CDB7DEB781E064E040E00E94BB09BB
:100F900081E065E040E00E94BB0981E066E041E05D
:100FA0000E94BB0981E067E040E00E94BB09ADE21E
:100FB000B0E0EDE2F0E080818F7E8C93ADE2B0E0B6
:100FC000EDE2F0E0808180648C93ADE2B0E0EDE290
:100FD000F0E080818F7D8C93ADE2B0E0EDE2F0E057
:100FE0008081877F8C93CF91DF910895DF93CF939A
:100FF0000F92CDB7DEB78983EFE2F0E0898180837D
:10100000EEE2F0E080818823DCF7A8E3B0E0E8E3DB
:10101000F0E0808180618C93EFE2F0E080810F90BE
:10102000CF91DF9108951F920F920FB60F92112466
:101030002F933F934F935F936F937F938F939F93E0
:10104000AF93BF93EF93FF93DF93CF93CDB7DEB70B
:101050000E94722ACF91DF91FF91EF91BF91AF91E2
:101060009F918F917F916F915F914F913F912F91C0
:101070000F900FBE0F901F9018951F920F920FB6F2
:101080000F921124DF93CF93CDB7DEB7CF91DF91CD
:101090000F900FBE0F901F901895DF93CF93CDB791
:1010A000DEB72A970FB6F894DEBF0FBECDBF8A8396
:1010B000AFE5B0E0EFE5F0E0808180688C938A8155
:1010C000282F30E03A87298789859A8581309105D4
:1010D00009F477C029853A852230310509F4DDC04D
:1010E00089859A85009709F006C1ABE5B0E0EBE58C
:1010F000F0E080818F7B8C9384E089838981282F25
:1011000030E038872F838F81988584309105A1F155
:101110002F8138852530310534F48F8198858130D1
:10112000910561F046C02F81388527303105A9F03F
:101130008F8198858A30910571F13BC0A5E5B0E0BB
:10114000E5E5F0E0808181608C93A5E5B0E0E5E520
:10115000F0E080818D7F8C932CC0A5E5B0E0E5E5C3
:10116000F0E0808181608C93A5E5B0E0E5E5F0E0FA
:10117000808182608C931DC0A5E5B0E0E5E5F0E0DC
:1011800080818E7F8C93A5E5B0E0E5E5F0E080817D
:1011900082608C930EC0A5E5B0E0E5E5F0E08081CB
:1011A0008E7F8C93A5E5B0E0E5E5F0E080818D7F52
:1011B0008C93ABE5B0E0EBE5F0E0808180648C934C
:1011C0009AC0ABE5B0E0EBE5F0E080818F778C93DF
:1011D00081E089838981282F30E03E832D838D81B2
:1011E0009E8184309105A1F12D813E81253031050C
:1011F00034F48D819E818130910561F046C02D814E
:101200003E8127303105A9F08D819E818A3091057C
:1012100071F13BC0A5E5B0E0E5E5F0E080818460D8
:101220008C93A5E5B0E0E5E5F0E08081877F8C93C5
:101230002CC0A5E5B0E0E5E5F0E0808184608C930A
:10124000A5E5B0E0E5E5F0E0808188608C931DC005
:10125000A5E5B0E0E5E5F0E080818B7F8C93A5E526
:10126000B0E0E5E5F0E0808188608C930EC0A5E5F4
:10127000B0E0E5E5F0E080818B7F8C93A5E5B0E000
:10128000E5E5F0E08081877F8C93ABE5B0E0EBE5AE
:10129000F0E0808180688C932EC0ABE5B0E0EBE598
:1012A000F0E080818F7D8C9387E089838981282F6E
:1012B00030E03C832B838B819C818430910569F0E5
:1012C0002B813C812730310579F4A4E5B0E0E4E5D9
:1012D000F0E0808180648C9307C0A4E5B0E0E4E591
:1012E000F0E080818F7B8C93ABE5B0E0EBE5F0E044
:1012F000808180628C932A960FB6F894DEBF0FBE71
:10130000CDBFCF91DF910895DF93CF9300D00F929F
:10131000CDB7DEB789838981282F30E03B832A83CC
:101320008A819B818130910589F02A813B8122301D
:101330003105A1F08A819B810097B9F4ABE5B0E05B
:10134000EBE5F0E080818F7B8C930FC0ABE5B0E0E4
:10135000EBE5F0E080818F778C9307C0ABE5B0E0E0
:10136000EBE5F0E080818F7D8C930F900F900F90D4
:10137000CF91DF910895DF93CF9300D000D00F92EB
:10138000CDB7DEB789836A834B838981843008F0C7
:10139000E4C08A81883008F0E0C08981282F30E0DD
:1013A0003D832C838C819D818130910509F447C058
:1013B0002C813D81223031052CF48C819D81009758
:1013C00071F0CBC02C813D812230310509F467C01A
:1013D0008C819D818330910509F491C0BEC08B81C1
:1013E0008823A9F4AAE3B0E0EAE3F0E08081482F83
:1013F0008A81282F30E081E090E0022E02C0880F21
:10140000991F0A94E2F7809584238C93A6C08B8160
:10141000813009F0A2C0AAE3B0E0EAE3F0E0808105
:10142000482F8A81282F30E081E090E0022E02C010
:10143000880F991F0A94E2F7842B8C938EC08B81BE
:101440008823A9F4A7E3B0E0E7E3F0E08081482F28
:101450008A81282F30E081E090E0022E02C0880FC0
:10146000991F0A94E2F7809584238C9376C08B8130
:10147000813009F072C0A7E3B0E0E7E3F0E08081DB
:10148000482F8A81282F30E081E090E0022E02C0B0
:10149000880F991F0A94E2F7842B8C935EC08B818E
:1014A0008823A9F4A4E3B0E0E4E3F0E08081482FCE
:1014B0008A81282F30E081E090E0022E02C0880F60
:1014C000991F0A94E2F7809584238C9346C08B8100
:1014D000813009F042C0A4E3B0E0E4E3F0E08081B1
:1014E000482F8A81282F30E081E090E0022E02C050
:1014F000880F991F0A94E2F7842B8C932EC08B815E
:101500008823A9F4A1E3B0E0E1E3F0E08081482F73
:101510008A81282F30E081E090E0022E02C0880FFF
:10152000991F0A94E2F7809584238C9316C08B81CF
:10153000813099F4A1E3B0E0E1E3F0E08081482F4D
:101540008A81282F30E081E090E0022E02C0880FCF
:10155000991F0A94E2F7842B8C930F900F900F90B1
:101560000F900F90CF91DF910895DF93CF9300D02C
:1015700000D00F92CDB7DEB789836A834B83898110
:10158000843008F0E4C08A81883008F0E0C08981A6
:10159000282F30E03D832C838C819D818130910503
:1015A00009F447C02C813D81223031052CF48C8117
:1015B0009D81009771F0CBC02C813D812230310597
:1015C00009F467C08C819D818330910509F491C035
:1015D000BEC08B818823A9F4ABE3B0E0EBE3F0E07D
:1015E0008081482F8A81282F30E081E090E0022E10
:1015F00002C0880F991F0A94E2F7809584238C9388
:10160000A6C08B81813009F0A2C0ABE3B0E0EBE370
:10161000F0E08081482F8A81282F30E081E090E03F
:10162000022E02C0880F991F0A94E2F7842B8C9334
:101630008EC08B818823A9F4A8E3B0E0E8E3F0E052
:101640008081482F8A81282F30E081E090E0022EAF
:1016500002C0880F991F0A94E2F7809584238C9327
:1016600076C08B81813009F072C0A8E3B0E0E8E376
:10167000F0E08081482F8A81282F30E081E090E0DF
:10168000022E02C0880F991F0A94E2F7842B8C93D4
:101690005EC08B818823A9F4A5E3B0E0E5E3F0E028
:1016A0008081482F8A81282F30E081E090E0022E4F
:1016B00002C0880F991F0A94E2F7809584238C93C7
:1016C00046C08B81813009F042C0A5E3B0E0E5E37C
:1016D000F0E08081482F8A81282F30E081E090E07F
:1016E000022E02C0880F991F0A94E2F7842B8C9374
:1016F0002EC08B818823A9F4A2E3B0E0E2E3F0E0FE
:101700008081482F8A81282F30E081E090E0022EEE
:1017100002C0880F991F0A94E2F7809584238C9366
:1017200016C08B81813099F4A2E3B0E0E2E3F0E0EF
:101730008081482F8A81282F30E081E090E0022EBE
:1017400002C0880F991F0A94E2F7842B8C930F90A4
:101750000F900F900F900F90CF91DF910895DF932E
:10176000CF9300D000D00F92CDB7DEB789836A83C4
:101770008981843018F48A81883018F022E02D8322
:101780006EC08981482F50E05C834B838B819C81A4
:101790008130910549F12B813C812230310534F4AF
:1017A0004B815C814115510561F057C08B819C8153
:1017B0008230910561F12B813C8123303105D1F1DB
:1017C0004CC0E9E3F0E08081282F30E08A81882F47
:1017D00090E0A90102C0559547958A95E2F7CA01A4
:1017E000582F51705D833BC0E6E3F0E08081282FE5
:1017F00030E08A81882F90E0A90102C05595479575
:101800008A95E2F7CA01582F51705D8328C0E3E33F
:10181000F0E08081282F30E08A81882F90E0A901B4
:1018200002C0559547958A95E2F7CA01582F517025
:101830005D8315C0E0E3F0E08081282F30E08A81ED
:10184000882F90E0A90102C0559547958A95E2F747
:10185000CA01582F51705D8302C082E08D838D8153
:101860000F900F900F900F900F90CF91DF910895F0
:10187000DF93CF9300D000D0CDB7DEB789836A83E2
:101880008981843090F58981282F30E03C832B8337
:101890008B819C8181309105D1F02B813C8122305C
:1018A00031052CF48B819C81009761F01EC02B8147
:1018B0003C812230310581F08B819C818330910500
:1018C00081F013C0EAE3F0E08A8180830EC0E7E391
:1018D000F0E08A81808309C0E4E3F0E08A818083BC
:1018E00004C0E1E3F0E08A8180830F900F900F90B5
:1018F0000F90CF91DF910895DF93CF9300D000D068
:10190000CDB7DEB789836A838981282F30E03C8395
:101910002B838B819C8181309105D1F02B813C817F
:10192000223031052CF48B819C81009761F01EC020
:101930002B813C812230310581F08B819C81833069
:10194000910581F013C0EBE3F0E08A8180830EC043
:10195000E8E3F0E08A81808309C0E5E3F0E08A8172
:10196000808304C0E2E3F0E08A8180830F900F90CF
:101970000F900F90CF91DF910895DF93CF9300D018
:10198000CDB7DEB78BE791E09A838983A7E2B0E019
:10199000E7E2F0E09081E981FA818081892B8C93E4
:1019A000A7E2B0E0E7E2F0E09081E981FA8181818D
:1019B000892B8C93A7E2B0E0E7E2F0E09081E98127
:1019C000FA818281892B8C93A6E2B0E0E6E2F0E016
:1019D000808180688C93A6E2B0E0E6E2F0E090813E
:1019E000E981FA818381892B8C93A6E2B0E0E6E25B
:1019F000F0E09081E981FA818481892B8C93A6E2C1
:101A0000B0E0E6E2F0E09081E981FA818381892B00
:101A10008C93E981FA818381883039F4AFE5B0E0B5
:101A2000EFE5F0E0808180688C930F900F90CF916C
:101A3000DF910895DF93CF9300D0CDB7DEB780E874
:101A400091E09A838983A7E2B0E0E7E2F0E0908139
:101A5000E981FA818081892B8C93A7E2B0E0E7E2EB
:101A6000F0E09081E981FA818181892B8C93A7E252
:101A7000B0E0E7E2F0E09081E981FA818281892B90
:101A80008C93A6E2B0E0E6E2F0E0808180688C937F
:101A9000A6E2B0E0E6E2F0E09081E981FA8183819C
:101AA000892B8C93A6E2B0E0E6E2F0E09081E98138
:101AB000FA818481892B8C93A6E2B0E0E6E2F0E023
:101AC0009081E981FA818381892B8C93E981FA8164
:101AD0008381883039F4AFE5B0E0EFE5F0E0808154
:101AE00080688C930F900F90CF91DF910895DF93D2
:101AF000CF9300D0CDB7DEB785E891E09A83898394
:101B0000A7E2B0E0E7E2F0E09081E981FA8180812C
:101B1000892B8C93A7E2B0E0E7E2F0E09081E981C5
:101B2000FA818181892B8C93A7E2B0E0E7E2F0E0B3
:101B30009081E981FA818281892B8C93A6E2B0E0C1
:101B4000E6E2F0E0808180688C93A6E2B0E0E6E215
:101B5000F0E09081E981FA818381892B8C93A6E260
:101B6000B0E0E6E2F0E09081E981FA818481892B9E
:101B70008C93A6E2B0E0E6E2F0E09081E981FA81A0
:101B80008381892B8C93E981FA818381883039F4B0
:101B9000AFE5B0E0EFE5F0E0808180688C930F90D6
:101BA0000F90CF91DF910895DF93CF9300D000D0B5
:101BB0000F92CDB7DEB78D831C821B828BE791E03D
:101BC0009A838983A6E2B0E0E6E2F0E080818F7735
:101BD0008C93A7E2B0E0E7E2F0E08081807E8C9316
:101BE000A7E2B0E0E7E2F0E090818D81892B8C9351
:101BF000A6E2B0E0E6E2F0E0808180688C930E948B
:101C00005D0EE6E2F0E0808182958F70882F90E093
:101C1000817090700097A9F3A6E2B0E0E6E2F0E0F0
:101C2000808180618C93E981FA8181818032B1F475
:101C3000E4E2F0E08081882F90E09C838B83E5E2F2
:101C4000F0E08081882F90E0982F88279C018B817D
:101C50009C81822B932B9C838B831AC0E981FA8110
:101C600081818823A9F4E4E2F0E08081882F90E06C
:101C70009C838B83E5E2F0E08081882F90E0982FB1
:101C800088279C018B819C81822B932B9C838B8347
:101C90008B819C810F900F900F900F900F90CF91A0
:101CA000DF910895DF93CF93CDB7DEB78091A40184
:101CB0009091A501CF91DF910895DF93CF93CDB798
:101CC000DEB7A6E2B0E0E6E2F0E0808180648C93CB
:101CD000CF91DF9108951F920F920FB60F921124AA
:101CE0002F933F938F939F93EF93FF93DF93CF9324
:101CF00000D0CDB7DEB78BE791E09A838983E98185
:101D0000FA818181803261F5E5E2F0E08081882FFF
:101D100090E09093A5018093A4018091A4019091FB
:101D2000A501382F2227E4E2F0E08081882F90E09F
:101D3000822B932B9093A5018093A4018091A40101
:101D40009091A5010024880F991F001C880F991FEE
:101D5000001C892F902D9093A5018093A4011FC092
:101D6000E981FA8181818823D1F4E5E2F0E0808184
:101D7000882F90E09093A5018093A4018091A40105
:101D80009091A501382F2227E4E2F0E08081882F8E
:101D900090E0822B932B9093A5018093A4010F9048
:101DA0000F90CF91DF91FF91EF919F918F913F9194
:101DB0002F910F900FBE0F901F901895DF93CF9328
:101DC0000F92CDB7DEB7898382E06FEF0E94380CA7
:101DD0008981813021F582E061E041E00E94B50A0D
:101DE00082E062E041E00E94B50A82E063E041E007
:101DF0000E94B50A82E064E041E00E94B50A82E0F8
:101E000065E041E00E94B50A82E066E041E00E94A0
:101E1000B50A82E067E040E00E94B50A26C08981E9
:101E2000823019F582E061E040E00E94B50A82E06C
:101E300062E040E00E94B50A82E063E040E00E9478
:101E4000B50A82E064E040E00E94B50A82E065E005
:101E500040E00E94B50A82E066E040E00E94B50AD8
:101E600082E067E041E00E94B50A0F90CF91DF91D8
:101E70000895DF93CF93CDB7DEB72D970FB6F894C3
:101E8000DEBF0FBECDBF89834A835B836C837D83B6
:101E90008981813009F001C28A819B81AC81BD8139
:101EA0008E839F83A887B9878E819F81A885B985F6
:101EB00084309105A105B10509F403C18E819F818C
:101EC000A885B98585309105A105B10548F58E81B4
:101ED0009F81A885B98581309105A105B10509F4D7
:101EE00080C08E819F81A885B98581309105A1052B
:101EF000B10508F452C08E819F81A885B9858230D2
:101F00009105A105B10509F494C08E819F81A88532
:101F1000B98583309105A105B10509F4AEC0A9C307
:101F20008E819F81A885B98587309105A105B1056E
:101F300009F43BC18E819F81A885B98588309105C0
:101F4000A105B105A8F48E819F81A885B98585304A
:101F50009105A105B10509F4D8C08E819F81A8859E
:101F6000B98586309105A105B10509F4F6C081C394
:101F70008E819F81A885B98588309105A105B1051D
:101F800009F43BC18E819F81A885B985893091056F
:101F9000A105B10509F459C16CC382E061E041E0DB
:101FA0000E94B50A82E062E041E00E94B50A82E048
:101FB00063E041E00E94B50A82E064E041E00E94F3
:101FC000B50A82E065E041E00E94B50A82E066E081
:101FD00041E00E94B50A82E067E040E00E94B50A55
:101FE00048C382E066E00E947C0C82E061E040E051
:101FF0000E94B50A82E062E041E00E94B50A82E0F8
:1020000063E041E00E94B50A82E064E040E00E94A3
:10201000B50A82E065E040E00E94B50A82E066E031
:1020200040E00E94B50A82E067E040E00E94B50A05
:1020300020C382E061E041E00E94B50A82E062E0F4
:1020400041E00E94B50A82E063E040E00E94B50AE8
:1020500082E064E041E00E94B50A82E065E041E090
:102060000E94B50A82E066E040E00E94B50A82E084
:1020700067E041E00E94B50AFCC282E061E041E015
:102080000E94B50A82E062E041E00E94B50A82E067
:1020900063E041E00E94B50A82E064E041E00E9412
:1020A000B50A82E065E040E00E94B50A82E066E0A1
:1020B00040E00E94B50A82E067E041E00E94B50A74
:1020C000D8C282E061E040E00E94B50A82E062E0AE
:1020D00041E00E94B50A82E063E041E00E94B50A57
:1020E00082E064E040E00E94B50A82E065E040E002
:1020F0000E94B50A82E066E041E00E94B50A82E0F3
:1021000067E041E00E94B50AB4C282E06DE60E9439
:102110007C0C82E061E041E00E94B50A82E062E06E
:1021200040E00E94B50A82E063E041E00E94B50A07
:1021300082E064E041E00E94B50A82E065E040E0B0
:102140000E94B50A82E066E041E00E94B50A82E0A2
:1021500067E041E00E94B50A8CC282E06DE70E9410
:102160007C0C82E061E041E00E94B50A82E062E01E
:1021700040E00E94B50A82E063E041E00E94B50AB7
:1021800082E064E041E00E94B50A82E065E041E05F
:102190000E94B50A82E066E041E00E94B50A82E052
:1021A00067E041E00E94B50A64C282E067E00E94F5
:1021B0007C0C82E061E041E00E94B50A82E062E0CE
:1021C00041E00E94B50A82E063E041E00E94B50A66
:1021D00082E064E040E00E94B50A82E065E040E011
:1021E0000E94B50A82E066E040E00E94B50A82E003
:1021F00067E040E00E94B50A3CC282E06FE70E94BF
:102200007C0C82E061E041E00E94B50A82E062E07D
:1022100041E00E94B50A82E063E041E00E94B50A15
:1022200082E064E041E00E94B50A82E065E041E0BE
:102230000E94B50A82E066E041E00E94B50A82E0B1
:1022400067E041E00E94B50A14C282E06FE60E9496
:102250007C0C82E061E041E00E94B50A82E062E02D
:1022600041E00E94B50A82E063E041E00E94B50AC5
:1022700082E064E041E00E94B50A82E065E040E06F
:102280000E94B50A82E066E041E00E94B50A82E061
:1022900067E041E00E94B50AECC18981823009F013
:1022A000E8C18A819B81AC81BD818A879B87AC878D
:1022B000BD878A859B85AC85BD8584309105A10548
:1022C000B10509F4FFC08A859B85AC85BD85853045
:1022D0009105A105B10548F58A859B85AC85BD852D
:1022E00081309105A105B10509F480C08A859B85DF
:1022F000AC85BD8581309105A105B10508F452C0BA
:102300008A859B85AC85BD8582309105A105B10587
:1023100009F490C08A859B85AC85BD858330910585
:10232000A105B10509F4AAC0A4C18A859B85AC8525
:10233000BD8587309105A105B10509F42FC18A85B6
:102340009B85AC85BD8588309105A105B105A8F4B4
:102350008A859B85AC85BD8585309105A105B10534
:1023600009F4D4C08A859B85AC85BD8586309105EE
:10237000A105B10509F4EEC07CC18A859B85AC85B9
:10238000BD8588309105A105B10509F42BC18A8569
:102390009B85AC85BD8589309105A105B10509F402
:1023A00045C167C182E061E040E00E94B50A82E079
:1023B00062E040E00E94B50A82E063E040E00E94F3
:1023C000B50A82E064E040E00E94B50A82E065E080
:1023D00040E00E94B50A82E066E040E00E94B50A53
:1023E00082E067E041E00E94B50A43C182E061E01B
:1023F00041E00E94B50A82E062E040E00E94B50A36
:1024000082E063E040E00E94B50A82E064E041E0DF
:102410000E94B50A82E065E041E00E94B50A82E0D0
:1024200066E041E00E94B50A82E067E041E00E9478
:10243000B50A1FC182E061E040E00E94B50A82E077
:1024400062E040E00E94B50A82E063E041E00E9461
:10245000B50A82E064E040E00E94B50A82E065E0EF
:1024600040E00E94B50A82E066E041E00E94B50AC1
:1024700082E067E040E00E94B50AFBC082E061E0D4
:1024800040E00E94B50A82E062E040E00E94B50AA6
:1024900082E063E040E00E94B50A82E064E040E050
:1024A0000E94B50A82E065E041E00E94B50A82E040
:1024B00066E041E00E94B50A82E067E040E00E94E9
:1024C000B50AD7C082E061E041E00E94B50A82E02F
:1024D00062E040E00E94B50A82E063E040E00E94D2
:1024E000B50A82E064E041E00E94B50A82E065E05E
:1024F00041E00E94B50A82E066E040E00E94B50A31
:1025000082E067E040E00E94B50AB3C082E061E08B
:1025100040E00E94B50A82E062E041E00E94B50A14
:1025200082E063E040E00E94B50A82E064E040E0BF
:102530000E94B50A82E065E041E00E94B50A82E0AF
:1025400066E040E00E94B50A82E067E040E00E9459
:10255000B50A8FC082E061E040E00E94B50A82E0E7
:1025600062E041E00E94B50A82E063E040E00E9440
:10257000B50A82E064E040E00E94B50A82E065E0CE
:1025800040E00E94B50A82E066E040E00E94B50AA1
:1025900082E067E040E00E94B50A6BC082E061E043
:1025A00040E00E94B50A82E062E040E00E94B50A85
:1025B00082E063E040E00E94B50A82E064E041E02E
:1025C0000E94B50A82E065E041E00E94B50A82E01F
:1025D00066E041E00E94B50A82E067E041E00E94C7
:1025E000B50A47C082E061E040E00E94B50A82E09F
:1025F00062E040E00E94B50A82E063E040E00E94B1
:10260000B50A82E064E040E00E94B50A82E065E03D
:1026100040E00E94B50A82E066E040E00E94B50A10
:1026200082E067E040E00E94B50A23C082E061E0FA
:1026300040E00E94B50A82E062E040E00E94B50AF4
:1026400082E063E040E00E94B50A82E064E040E09E
:102650000E94B50A82E065E041E00E94B50A82E08E
:1026600066E040E00E94B50A82E067E040E00E9438
:10267000B50A2D960FB6F894DEBF0FBECDBFCF9131
:10268000DF910895DF93CF930F92CDB7DEB78983A3
:1026900082E06FEF0E94380C8981813029F482E05A
:1026A0006FE30E947C0C07C08981823021F482E0B4
:1026B00060E40E947C0C0F90CF91DF910895DF932E
:1026C000CF9300D000D000D0CDB7DEB789836A8326
:1026D0008981813009F07EC08A81282F30E03E83D5
:1026E0002D838D819E818430910509F455C02D8103
:1026F0003E8125303105DCF48D819E81813091054C
:1027000009F43BC02D813E81223031052CF48D81AE
:102710009E81009769F1DFC02D813E812230310515
:1027200089F18D819E818330910589F1D4C02D81FD
:102730003E812730310509F43EC08D819E8188306D
:1027400091055CF42D813E812530310551F18D815B
:102750009E818630910551F1BEC02D813E81283089
:10276000310571F18D819E818930910571F1B3C080
:1027700082E06FE30E947C0CAEC082E066E00E94C3
:102780007C0CA9C082E06BE50E947C0CA4C082E0B6
:102790006FE40E947C0C9FC082E066E60E947C0C85
:1027A0009AC082E06DE60E947C0C95C082E06DE7E5
:1027B0000E947C0C90C082E067E00E947C0C8BC081
:1027C00082E06FE70E947C0C86C082E06FE60E9488
:1027D0007C0C81C08981823009F07DC08A81282FDC
:1027E00030E03C832B838B819C818430910509F4FC
:1027F00055C02B813C8125303105DCF48B819C81D7
:102800008130910509F43BC02B813C812230310598
:102810002CF48B819C81009769F15DC02B813C81F8
:102820002230310589F18B819C818330910589F1BA
:1028300052C02B813C812730310509F43EC08B8189
:102840009C81883091055CF42B813C8125303105D9
:1028500051F18B819C818630910551F13CC02B81D7
:102860003C812830310571F18B819C818930910543
:1028700071F131C082E060E40E947C0C2CC082E0E7
:1028800069E70E947C0C27C082E064E20E947C0C15
:1028900022C082E060E30E947C0C1DC082E069E1FE
:1028A0000E947C0C18C082E062E10E947C0C13C084
:1028B00082E062E00E947C0C0EC082E068E70E9429
:1028C0007C0C09C082E060E00E947C0C04C082E0C5
:1028D00060E10E947C0C26960FB6F894DEBF0FBE16
:1028E000CDBFCF91DF910895DF93CF93CDB7DEB702
:1028F0002F970FB6F894DEBF0FBECDBF8F8783E052
:1029000064E040E00E94B50A83E065E040E00E9498
:10291000B50A82E06F850E947C0C83E066E041E0AE
:102920000E94B50A80E090E0A0E0B0E48B879C872D
:10293000AD87BE876B857C858D859E8520E030E0E8
:102940004AEF54E40E941F02DC01CB018F83988779
:10295000A987BA876F81788589859A8520E030E0DC
:1029600040E85FE30E94250488232CF481E090E096
:102970009E838D833FC06F81788589859A8520E00D
:102980003FEF4FE757E40E94C50318164CF56B85DF
:102990007C858D859E8520E030E040E251E40E94F8
:1029A0001F02DC01CB01BC01CD010E944900DC010A
:1029B000CB019E838D830FC088EC90E09C838B833A
:1029C0008B819C810197F1F79C838B838D819E8104
:1029D00001979E838D838D819E81009769F714C036
:1029E0006F81788589859A850E944900DC01CB0139
:1029F0009E838D838D819E819A83898389819A812B
:102A00000197F1F79A83898383E066E040E00E94B2
:102A1000B50A2F960FB6F894DEBF0FBECDBFCF918B
:102A2000DF910895DF93CF93CDB7DEB7AA970FB6A6
:102A3000F894DEBF0FBECDBF83E064E041E00E94AA
:102A4000BB0983E065E041E00E94BB0983E066E0EA
:102A500041E00E94BB0982E06FEF0E94380C8CE3DA
:102A60000E94741480E090E0A0E8BFE38FA398A7D1
:102A7000A9A7BAA76FA178A589A59AA520E030E0FB
:102A80004AEF54E40E941F02DC01CB018BA39CA3FC
:102A9000ADA3BEA36BA17CA18DA19EA120E030E0DF
:102AA00040E85FE30E94250488232CF481E090E055
:102AB0009AA389A33FC06BA17CA18DA19EA120E018
:102AC0003FEF4FE757E40E94C50318164CF56FA17E
:102AD00078A589A59AA520E030E040E251E40E9463
:102AE0001F02DC01CB01BC01CD010E944900DC01C9
:102AF000CB019AA389A30FC088EC90E098A38F8F95
:102B00008F8D98A10197F1F798A38F8F89A19AA132
:102B100001979AA389A389A19AA1009769F714C084
:102B20006BA17CA18DA19EA10E944900DC01CB017B
:102B30009AA389A389A19AA19E8F8D8F8D8D9E8D39
:102B40000197F1F79E8F8D8F8FE00E94741480E0C3
:102B500090E0A0E8BFE3898F9A8FAB8FBC8F698D1F
:102B60007A8D8B8D9C8D20E030E04AEF54E40E94FA
:102B70001F02DC01CB018D8B9E8BAF8BB88F6D89D3
:102B80007E898F89988D20E030E040E85FE30E94E5
:102B9000250488232CF481E090E09C8B8B8B3FC034
:102BA0006D897E898F89988D20E03FEF4FE757E44C
:102BB0000E94C50318164CF5698D7A8D8B8D9C8DFE
:102BC00020E030E040E251E40E941F02DC01CB0132
:102BD000BC01CD010E944900DC01CB019C8B8B8B99
:102BE0000FC088EC90E09A8B898B89899A8901972C
:102BF000F1F79A8B898B8B899C8901979C8B8B8BA6
:102C00008B899C89009769F714C06D897E898F89AB
:102C1000988D0E944900DC01CB019C8B8B8B8B89AA
:102C20009C89988B8F878F8598890197F1F7988B6E
:102C30008F8781E00E94741480E090E0A0E8BFE3F9
:102C40008B879C87AD87BE876B857C858D859E85B0
:102C500020E030E04AEF54E40E941F02DC01CB0187
:102C60008F839887A987BA876F81788589859A85A8
:102C700020E030E040E85FE30E94250488232CF444
:102C800081E090E09E838D833FC06F817885898548
:102C90009A8520E03FEF4FE757E40E94C5031816DE
:102CA0004CF56B857C858D859E8520E030E040E28B
:102CB00051E40E941F02DC01CB01BC01CD010E9446
:102CC0004900DC01CB019E838D830FC088EC90E02E
:102CD0009C838B838B819C810197F1F79C838B83F1
:102CE0008D819E8101979E838D838D819E8100972A
:102CF00069F714C06F81788589859A850E9449009B
:102D0000DC01CB019E838D838D819E819A83898393
:102D100089819A810197F1F79A838983AA960FB6E0
:102D2000F894DEBF0FBECDBFCF91DF910895DF9342
:102D3000CF93CDB7DEB72F970FB6F894DEBF0FBE97
:102D4000CDBF8F8783E065E040E00E94B50A83E055
:102D500064E041E00E94B50A82E06F850E947C0C2D
:102D600083E066E041E00E94B50A80E090E0A0E0E8
:102D7000B0E48B879C87AD87BE876B857C858D850E
:102D80009E8520E030E04AEF54E40E941F02DC01FF
:102D9000CB018F839887A987BA876F8178858985CA
:102DA0009A8520E030E040E85FE30E942504882314
:102DB0002CF481E090E09E838D833FC06F81788505
:102DC00089859A8520E03FEF4FE757E40E94C503CD
:102DD00018164CF56B857C858D859E8520E030E04E
:102DE00040E251E40E941F02DC01CB01BC01CD0195
:102DF0000E944900DC01CB019E838D830FC088ECCB
:102E000090E09C838B838B819C810197F1F79C835D
:102E10008B838D819E8101979E838D838D819E8181
:102E2000009769F714C06F81788589859A850E941B
:102E30004900DC01CB019E838D838D819E819A8325
:102E4000898389819A810197F1F79A83898383E045
:102E500066E040E00E94B50A2F960FB6F894DEBFF8
:102E60000FBECDBFCF91DF910895DF93CF9300D0F8
:102E7000CDB7DEB79A8389830BC0E981FA812081BF
:102E800089819A8101969A838983822F0E9497165D
:102E9000E981FA818081882381F70F900F90CF918B
:102EA000DF910895DF93CF93CDB7DEB7E5970FB6E7
:102EB000F894DEBF0FBECDBF8DAB83E064E040E091
:102EC0000E94B50A83E065E040E00E94B50A8DA942
:102ED00082958F70982F917082E064E0492F0E9454
:102EE000B50A8DA9829586958770982F917082E09A
:102EF00065E0492F0E94B50A8DA982958695869531
:102F00008370982F917082E066E0492F0E94B50A85
:102F10008DA9982F991F9927991F82E067E0492F63
:102F20000E94B50A83E066E041E00E94B50A80E0B5
:102F300090E0A0E0B0E489AB9AABABABBCAB69A9C5
:102F40007AA98BA99CA920E030E04AEF54E40E94C2
:102F50001F02DC01CB018DA79EA7AFA7B8AB6DA563
:102F60007EA58FA598A920E030E040E85FE30E94AD
:102F7000250488232CF481E090E09CA78BA73FC018
:102F80006DA57EA58FA598A920E03FEF4FE757E4F8
:102F90000E94C50318164CF569A97AA98BA99CA9AA
:102FA00020E030E040E251E40E941F02DC01CB014E
:102FB000BC01CD010E944900DC01CB019CA78BA77D
:102FC0000FC088EC90E09AA789A789A59AA50197D8
:102FD000F1F79AA789A78BA59CA501979CA78BA71A
:102FE0008BA59CA5009769F714C06DA57EA58FA53C
:102FF00098A90E944900DC01CB019CA78BA78BA557
:103000009CA598A78FA38FA198A50197F1F798A7E2
:103010008FA383E066E040E00E94B50A80E090E084
:10302000A8E4B3E48BA39CA3ADA3BEA36BA17CA136
:103030008DA19EA12BEA3AEA4AE250E40E941F02C7
:10304000DC01CB018F8F98A3A9A3BAA36F8D78A1C0
:1030500089A19AA120E030E040E85FE30E942504C6
:1030600088231CF481E08E8F91C06F8D78A189A197
:103070009AA120E030E04FE753E40E94C503181600
:103080000CF07BC06BA17CA18DA19EA120E030E063
:103090004AE754E40E941903DC01CB018A8F9B8F1D
:1030A000AC8FBD8F6A8D7B8D8C8D9D8D20E030E047
:1030B0004AEF54E40E941F02DC01CB018E8B9F8BF0
:1030C000A88FB98F6E897F89888D998D20E030E037
:1030D00040E85FE30E94250488232CF481E090E01F
:1030E0009D8B8C8B3FC06E897F89888D998D20E068
:1030F0003FEF4FE757E40E94C50318164CF56A8D61
:103100007B8D8C8D9D8D20E030E040E251E40E946B
:103110001F02DC01CB01BC01CD010E944900DC0192
:10312000CB019D8B8C8B0FC088EC90E09B8B8A8BA6
:103130008A899B890197F1F79B8B8A8B8C899D8962
:1031400001979D8B8C8B8C899D89009769F724C092
:103150006E897F89888D998D0E944900DC01CB01A1
:103160009D8B8C8B8C899D89998B888B888999897B
:103170000197F1F7998B888B0FC06F8D78A189A18A
:103180009AA10E944900DC01CB018E8F8E8D8F8722
:103190008F858A95F1F78F8783E064E040E00E9495
:1031A000B50A83E065E040E00E94B50A8DA9982F3A
:1031B000917082E064E0492F0E94B50A8DA986953E
:1031C000982F917082E065E0492F0E94B50A8DA981
:1031D00086958695982F917082E066E0492F0E942F
:1031E000B50A8DA9869586958695982F917082E06F
:1031F00067E0492F0E94B50A83E066E041E00E9443
:10320000B50A80E090E0A0E0B0E48B879C87AD87B2
:10321000BE876B857C858D859E8520E030E04AEFFA
:1032200054E40E941F02DC01CB018F839887A98799
:10323000BA876F81788589859A8520E030E040E8FB
:103240005FE30E94250488232CF481E090E09E83B4
:103250008D833FC06F81788589859A8520E03FEF17
:103260004FE757E40E94C50318164CF56B857C8523
:103270008D859E8520E030E040E251E40E941F02EF
:10328000DC01CB01BC01CD010E944900DC01CB0176
:103290009E838D830FC088EC90E09C838B838B8111
:1032A0009C810197F1F79C838B838D819E8101978F
:1032B0009E838D838D819E81009769F714C06F81F5
:1032C000788589859A850E944900DC01CB019E831F
:1032D0008D838D819E819A83898389819A810197CB
:1032E000F1F79A83898383E066E040E00E94B50AA3
:1032F000E5960FB6F894DEBF0FBECDBFCF91DF913C
:103300000895DF93CF93CDB7DEB72E970FB6F8941D
:10331000DEBF0FBECDBF83E064E041E00E94BB0989
:1033200083E065E041E00E94BB0983E066E041E0A4
:103330000E94BB0982E064E041E00E94BB0982E098
:1033400065E041E00E94BB0982E066E041E00E9446
:10335000BB0982E067E041E00E94BB0980E090E0A9
:10336000A0EAB1E48B879C87AD87BE876B857C859F
:103370008D859E8520E030E04AEF54E40E941F02D4
:10338000DC01CB018F839887A987BA876F81788505
:1033900089859A8520E030E040E85FE30E942504BB
:1033A00088232CF481E090E09E838D833FC06F8161
:1033B000788589859A8520E03FEF4FE757E40E94A2
:1033C000C50318164CF56B857C858D859E8520E0A0
:1033D00030E040E251E40E941F02DC01CB01BC015D
:1033E000CD010E944900DC01CB019E838D830FC07B
:1033F00088EC90E09C838B838B819C810197F1F713
:103400009C838B838D819E8101979E838D838D818B
:103410009E81009769F714C06F81788589859A85A8
:103420000E944900DC01CB019E838D838D819E81AA
:103430009A83898389819A810197F1F79A83898395
:1034400083E30E94521782E30E94521788E20E948F
:1034500052178CE00E94521786E00E94521781E0BA
:103460000E9452172E960FB6F894DEBF0FBECDBF46
:10347000CF91DF910895DF93CF93CDB7DEB7E59776
:103480000FB6F894DEBF0FBECDBF8DAB8DA9829570
:103490008F70982F917082E064E0492F0E94B50AE6
:1034A0008DA9829586958770982F917082E065E04E
:1034B000492F0E94B50A8DA98295869586958370BD
:1034C000982F917082E066E0492F0E94B50A8DA97D
:1034D000982F991F9927991F82E067E0492F0E9432
:1034E000B50A83E064E041E00E94B50A83E066E04B
:1034F00041E00E94B50A80E090E0A0E0B0E489AB32
:103500009AABABABBCAB69A97AA98BA99CA920E00B
:1035100030E04AEF54E40E941F02DC01CB018DA78A
:103520009EA7AFA7B8AB6DA57EA58FA598A920E0F3
:1035300030E040E85FE30E94250488232CF481E01A
:1035400090E09CA78BA73FC06DA57EA58FA598A9ED
:1035500020E03FEF4FE757E40E94C50318164CF5F3
:1035600069A97AA98BA99CA920E030E040E251E446
:103570000E941F02DC01CB01BC01CD010E94490069
:10358000DC01CB019CA78BA70FC088EC90E09AA729
:1035900089A789A59AA50197F1F79AA789A78BA56D
:1035A0009CA501979CA78BA78BA59CA5009769F765
:1035B00014C06DA57EA58FA598A90E944900DC01C5
:1035C000CB019CA78BA78BA59CA598A78FA38FA1A8
:1035D00098A50197F1F798A78FA383E066E040E0F4
:1035E0000E94B50A80E090E0A8E4B3E48BA39CA31A
:1035F000ADA3BEA36BA17CA18DA19EA12BEA3AEA4B
:103600004AE250E40E941F02DC01CB018F8F98A395
:10361000A9A3BAA36F8D78A189A19AA120E030E077
:1036200040E85FE30E94250488231CF481E08E8F2C
:1036300091C06F8D78A189A19AA120E030E04FE779
:1036400053E40E94C50318160CF07BC06BA17CA14B
:103650008DA19EA120E030E04AE754E40E941903C6
:10366000DC01CB018A8F9B8FAC8FBD8F6A8D7B8DE8
:103670008C8D9D8D20E030E04AEF54E40E941F02C3
:10368000DC01CB018E8B9F8BA88FB98F6E897F89D0
:10369000888D998D20E030E040E85FE30E942504AA
:1036A00088232CF481E090E09D8B8C8B3FC06E8949
:1036B0007F89888D998D20E03FEF4FE757E40E9486
:1036C000C50318164CF56A8D7B8D8C8D9D8D20E081
:1036D00030E040E251E40E941F02DC01CB01BC015A
:1036E000CD010E944900DC01CB019D8B8C8B0FC06A
:1036F00088EC90E09B8B8A8B8A899B890197F1F7F4
:103700009B8B8A8B8C899D8901979D8B8C8B8C8957
:103710009D89009769F724C06E897F89888D998D6E
:103720000E944900DC01CB019D8B8C8B8C899D898B
:10373000998B888B888999890197F1F7998B888B68
:103740000FC06F8D78A189A19AA10E944900DC0168
:10375000CB018E8F8E8D8F878F858A95F1F78F871E
:103760008DA9982F917082E064E0492F0E94B50ADC
:103770008DA98695982F917082E065E0492F0E946F
:10378000B50A8DA986958695982F917082E066E09E
:10379000492F0E94B50A8DA9869586958695982F02
:1037A000917082E067E0492F0E94B50A83E066E0ED
:1037B00041E00E94B50A80E090E0A0E0B0E48B8791
:1037C0009C87AD87BE876B857C858D859E8520E037
:1037D00030E04AEF54E40E941F02DC01CB018F83EA
:1037E0009887A987BA876F81788589859A8520E02F
:1037F00030E040E85FE30E94250488232CF481E058
:1038000090E09E838D833FC06F81788589859A85FE
:1038100020E03FEF4FE757E40E94C50318164CF530
:103820006B857C858D859E8520E030E040E251E40B
:103830000E941F02DC01CB01BC01CD010E944900A6
:10384000DC01CB019E838D830FC088EC90E09C83CC
:103850008B838B819C810197F1F79C838B838D8176
:103860009E8101979E838D838D819E81009769F74C
:1038700014C06F81788589859A850E944900DC0192
:10388000CB019E838D838D819E819A8389838981DB
:103890009A810197F1F79A83898383E066E040E09B
:1038A0000E94B50AE5960FB6F894DEBF0FBECDBFF5
:1038B000CF91DF910895DF93CF9300D0CDB7DEB7DE
:1038C0009A8389830BC0E981FA81208189819A8159
:1038D00001969A838983822F0E943B1AE981FA819B
:1038E0008081882381F70F900F90CF91DF91089509
:1038F000EF92FF920F931F93DF93CF93CDB7DEB775
:1039000028970FB6F894DEBF0FBECDBF6D837E83C0
:103910008F83988781E090E0A0E0B0E089839A836C
:10392000AB83BC838D819E81AF81B8850097A10553
:10393000B105D1F580E30E943B1A36C089819A8196
:10394000AB81BC812AE030E040E050E0BC01CD0119
:103950000E947A2E7B018C018D819E81AF81B8857A
:103960002AE030E040E050E0BC01CD010E94992EF9
:10397000DC01CB018E0D9F1DA01FB11F89839A838F
:10398000AB83BC838D819E81AF81B8852AE030E016
:1039900040E050E0BC01CD010E94992EDA01C9013E
:1039A0008D839E83AF83B8878D819E81AF81B885DB
:1039B0000097A105B10511F623C089819A81AB81D9
:1039C000BC812AE030E040E050E0BC01CD010E9423
:1039D000992EDC01CB01805D0E943B1A89819A817E
:1039E000AB81BC812AE030E040E050E0BC01CD0179
:1039F0000E94992EDA01C90189839A83AB83BC8323
:103A000089819A81AB81BC8181309105A105B10585
:103A1000A1F628960FB6F894DEBF0FBECDBFCF91AA
:103A2000DF911F910F91FF90EF900895DF93CF9357
:103A300000D0CDB7DEB789836A8380E80E94741412
:103A40008981813059F48A818823A9F08A81813162
:103A500090F48A8181580E9474140DC0898182304B
:103A600051F48A81882339F08A81813120F48A8156
:103A700081540E9474140F900F90CF91DF9108959C
:103A8000DF93CF9300D0CDB7DEB789836A8380E818
:103A90000E9452178981813059F48A818823A9F0C4
:103AA0008A81813190F48A8181580E9452170DC019
:103AB0008981823051F48A81882339F08A81813169
:103AC00020F48A8181540E9452170F900F90CF9159
:103AD000DF910895DF93CF93CDB7DEB783E060EF3A
:103AE0000E94380C83E06FE70E947C0CCF91DF913D
:103AF0000895DF93CF93CDB7DEB763970FB6F894F1
:103B0000DEBF0FBECDBF188A00C1A2E3B0E0E2E382
:103B1000F0E08081482F8889882F90E0FC01E257EF
:103B2000FE4F8081282F30E081E090E0022E02C01D
:103B3000880F991F0A94E2F7809584238C938889D3
:103B40008A8B1F86C2C0E0E3F0E08081282F30E03E
:103B50008F85882F90E0FC01E657FE4F8081882FEB
:103B600090E0A90102C0559547958A95E2F7CA01F0
:103B70008170898B80E090E0A0EAB1E48B879C871C
:103B8000AD87BE876B857C858D859E8520E030E086
:103B90004AEF54E40E941F02DC01CB018F83988717
:103BA000A987BA876F81788589859A8520E030E07A
:103BB00040E85FE30E94250488232CF481E090E034
:103BC0009E838D833FC06F81788589859A8520E0AB
:103BD0003FEF4FE757E40E94C50318164CF56B857D
:103BE0007C858D859E8520E030E040E251E40E9496
:103BF0001F02DC01CB01BC01CD010E944900DC01A8
:103C0000CB019E838D830FC088EC90E09C838B83D7
:103C10008B819C810197F1F79C838B838D819E81A1
:103C200001979E838D838D819E81009769F714C0D3
:103C30006F81788589859A850E944900DC01CB01D6
:103C40009E838D838D819E819A83898389819A81C8
:103C50000197F1F79A838983E0E3F0E08081282FD0
:103C600030E08F85882F90E0FC01E657FE4F808181
:103C7000882F90E0A90102C0559547958A95E2F7F3
:103C8000CA018170898B8F858B8B89898823D1F4B8
:103C90008B89282F30E08A89482F50E0C901880F8E
:103CA000991F820F931F840F951FFC01EF56FE4F43
:103CB000808163960FB6F894DEBF0FBECDBFCF9163
:103CC000DF9108958F858F5F8F878F85843008F40B
:103CD0003ACFA2E3B0E0E2E3F0E08081482F8889A8
:103CE000882F90E0FC01E257FE4F8081282F30E0C2
:103CF00081E090E0022E02C0880F991F0A94E2F73B
:103D0000842B8C9388898F5F888B8889833008F413
:103D1000FCCEF9CEDF93CF93CDB7DEB7E3E5F0E08D
:103D20001082E3E5F0E081E08083E2E5F0E01082DC
:103D3000A9E5B0E0E9E5F0E0808181608C93CF9166
:103D4000DF910895DF93CF93CDB7DEB7E8970FB635
:103D5000F894DEBF0FBECDBFEAE3F0E080EF8083D2
:103D6000A7E3B0E0E7E3F0E080818E608C93EBE3C3
:103D7000F0E080E28083A8E3B0E0E8E3F0E0808157
:103D800088608C9380E090E0A0EAB0E48DAB9EABBD
:103D9000AFABB8AF6DA97EA98FA998AD20E030E098
:103DA0004AEF54E40E941F02DC01CB0189AB9AABBD
:103DB000ABABBCAB69A97AA98BA99CA920E030E088
:103DC00040E85FE30E94250488232CF481E090E022
:103DD00098AB8FA73FC069A97AA98BA99CA920E0BD
:103DE0003FEF4FE757E40E94C50318164CF56DA945
:103DF0007EA98FA998AD20E030E040E251E40E9416
:103E00001F02DC01CB01BC01CD010E944900DC0195
:103E1000CB0198AB8FA70FC088EC90E09EA78DA731
:103E20008DA59EA50197F1F79EA78DA78FA598A9AF
:103E3000019798AB8FA78FA598A9009769F714C031
:103E400069A97AA98BA99CA90E944900DC01CB0130
:103E500098AB8FA78FA598A99CA78BA78BA59CA58E
:103E60000197F1F79CA78BA7A8E3B0E0E8E3F0E0A7
:103E70008081877F8C9380E090E0A0EAB0E48FA3FC
:103E800098A7A9A7BAA76FA178A589A59AA520E0A8
:103E900030E04AEF54E40E941F02DC01CB018BA307
:103EA0009CA3ADA3BEA36BA17CA18DA19EA120E08C
:103EB00030E040E85FE30E94250488232CF481E091
:103EC00090E09AA389A33FC06BA17CA18DA19EA184
:103ED00020E03FEF4FE757E40E94C50318164CF56A
:103EE0006FA178A589A59AA520E030E040E251E4D1
:103EF0000E941F02DC01CB01BC01CD010E944900E0
:103F0000DC01CB019AA389A30FC088EC90E098A3B1
:103F10008F8F8F8D98A10197F1F798A38F8F89A12B
:103F20009AA101979AA389A389A19AA1009769F7F9
:103F300014C06BA17CA18DA19EA10E944900DC014F
:103F4000CB019AA389A389A19AA19E8F8D8F8D8D74
:103F50009E8D0197F1F79E8F8D8F88E20E94A3209E
:103F600080E090E0A0EAB0E4898F9A8FAB8FBC8F9D
:103F7000698D7A8D8B8D9C8D20E030E04AEF54E482
:103F80000E941F02DC01CB018D8B9E8BAF8BB88F03
:103F90006D897E898F89988D20E030E040E85FE36D
:103FA0000E94250488232CF481E090E09C8B8B8B6D
:103FB0003FC06D897E898F89988D20E03FEF4FE764
:103FC00057E40E94C50318164CF5698D7A8D8B8DC8
:103FD0009C8D20E030E040E251E40E941F02DC01B1
:103FE000CB01BC01CD010E944900DC01CB019C8BBF
:103FF0008B8B0FC088EC90E09A8B898B89899A898A
:104000000197F1F79A8B898B8B899C8901979C8BFF
:104010008B8B8B899C89009769F714C06D897E8989
:104020008F89988D0E944900DC01CB019C8B8B8B82
:104030008B899C89988B8F878F8598890197F1F759
:10404000988B8F878FE00E94A32080E090E0A0EA09
:10405000B0E48B879C87AD87BE876B857C858D851B
:104060009E8520E030E04AEF54E40E941F02DC010C
:10407000CB018F839887A987BA876F8178858985D7
:104080009A8520E030E040E85FE30E942504882321
:104090002CF481E090E09E838D833FC06F81788512
:1040A00089859A8520E03FEF4FE757E40E94C503DA
:1040B00018164CF56B857C858D859E8520E030E05B
:1040C00040E251E40E941F02DC01CB01BC01CD01A2
:1040D0000E944900DC01CB019E838D830FC088ECD8
:1040E00090E09C838B838B819C810197F1F79C836B
:1040F0008B838D819E8101979E838D838D819E818F
:10410000009769F714C06F81788589859A850E9428
:104110004900DC01CB019E838D838D819E819A8332
:10412000898389819A810197F1F79A83898380E84D
:104130000E94A320E8960FB6F894DEBF0FBECDBF55
:10414000CF91DF910895DF93CF93CDB7DEB7E99795
:104150000FB6F894DEBF0FBECDBF89AFEBE3F0E042
:1041600089AD807F8083A8E3B0E0E8E3F0E0808160
:104170008D7F8C93A8E3B0E0E8E3F0E08081886075
:104180008C9380E090E0A0EAB0E48DAB9EABAFAB47
:10419000B8AF6DA97EA98FA998AD20E030E04AEFB5
:1041A00054E40E941F02DC01CB0189AB9AABABAB9C
:1041B000BCAB69A97AA98BA99CA920E030E040E8B2
:1041C0005FE30E94250488232CF481E090E098AB03
:1041D0008FA73FC069A97AA98BA99CA920E03FEFCE
:1041E0004FE757E40E94C50318164CF56DA97EA948
:1041F0008FA998AD20E030E040E251E40E941F0218
:10420000DC01CB01BC01CD010E944900DC01CB01E6
:1042100098AB8FA70FC088EC90E09EA78DA78DA5C7
:104220009EA50197F1F79EA78DA78FA598A9019745
:1042300098AB8FA78FA598A9009769F714C069A9B3
:104240007AA98BA99CA90E944900DC01CB0198ABFB
:104250008FA78FA598A99CA78BA78BA59CA5019735
:10426000F1F79CA78BA7A8E3B0E0E8E3F0E080813A
:10427000877F8C9380E090E0A0EAB0E48FA398A7BA
:10428000A9A7BAA76FA178A589A59AA520E030E0D3
:104290004AEF54E40E941F02DC01CB018BA39CA3D4
:1042A000ADA3BEA36BA17CA18DA19EA120E030E0B7
:1042B00040E85FE30E94250488232CF481E090E02D
:1042C0009AA389A33FC06BA17CA18DA19EA120E0F0
:1042D0003FEF4FE757E40E94C50318164CF56FA156
:1042E00078A589A59AA520E030E040E251E40E943B
:1042F0001F02DC01CB01BC01CD010E944900DC01A1
:10430000CB019AA389A30FC088EC90E098A38F8F6C
:104310008F8D98A10197F1F798A38F8F89A19AA10A
:1043200001979AA389A389A19AA1009769F714C05C
:104330006BA17CA18DA19EA10E944900DC01CB0153
:104340009AA389A389A19AA19E8F8D8F8D8D9E8D11
:104350000197F1F79E8F8D8FEBE3F0E089AD882F09
:1043600090E082959295907F9827807F9827808310
:10437000A8E3B0E0E8E3F0E0808188608C9380E01F
:1043800090E0A0EAB0E4898F9A8FAB8FBC8F698DE3
:104390007A8D8B8D9C8D20E030E04AEF54E40E94B2
:1043A0001F02DC01CB018D8B9E8BAF8BB88F6D898B
:1043B0007E898F89988D20E030E040E85FE30E949D
:1043C000250488232CF481E090E09C8B8B8B3FC0EC
:1043D0006D897E898F89988D20E03FEF4FE757E404
:1043E0000E94C50318164CF5698D7A8D8B8D9C8DB6
:1043F00020E030E040E251E40E941F02DC01CB01EA
:10440000BC01CD010E944900DC01CB019C8B8B8B50
:104410000FC088EC90E09A8B898B89899A890197E3
:10442000F1F79A8B898B8B899C8901979C8B8B8B5D
:104430008B899C89009769F714C06D897E898F8963
:10444000988D0E944900DC01CB019C8B8B8B8B8962
:104450009C89988B8F878F8598890197F1F7988B26
:104460008F87A8E3B0E0E8E3F0E08081877F8C935A
:1044700080E090E0A0EAB0E48B879C87AD87BE87A0
:104480006B857C858D859E8520E030E04AEF54E485
:104490000E941F02DC01CB018F839887A987BA870E
:1044A0006F81788589859A8520E030E040E85FE378
:1044B0000E94250488232CF481E090E09E838D8364
:1044C0003FC06F81788589859A8520E03FEF4FE76F
:1044D00057E40E94C50318164CF56B857C858D85C5
:1044E0009E8520E030E040E251E40E941F02DC01A2
:1044F000CB01BC01CD010E944900DC01CB019E83B0
:104500008D830FC088EC90E09C838B838B819C8192
:104510000197F1F79C838B838D819E8101979E8308
:104520008D838D819E81009769F714C06F81788596
:1045300089859A850E944900DC01CB019E838D8389
:104540008D819E819A83898389819A810197F1F770
:104550009A838983E9960FB6F894DEBF0FBECDBF6C
:10456000CF91DF910895DF93CF9300D000D0CDB7E6
:10457000DEB79C838B831A8219820FC029813A810E
:104580008B819C81FC01E20FF31F80810E94DE225F
:1045900089819A8101969A83898329813A818B81C5
:1045A0009C81FC01E20FF31F8081882339F70F9073
:1045B0000F900F900F90CF91DF910895DF93CF93DD
:1045C000CDB7DEB7E9970FB6F894DEBF0FBECDBF0B
:1045D00089AFEBE3F0E089AD807F8083A8E3B0E0B2
:1045E000E8E3F0E0808182608C93A8E3B0E0E8E348
:1045F000F0E0808188608C9380E090E0A0EAB0E4F5
:104600008DAB9EABAFABB8AF6DA97EA98FA998ADAE
:1046100020E030E04AEF54E40E941F02DC01CB01AD
:1046200089AB9AABABABBCAB69A97AA98BA99CA9A6
:1046300020E030E040E85FE30E94250488232CF46A
:1046400081E090E098AB8FA73FC069A97AA98BA9B8
:104650009CA920E03FEF4FE757E40E94C5031816DE
:104660004CF56DA97EA98FA998AD20E030E040E21D
:1046700051E40E941F02DC01CB01BC01CD010E946C
:104680004900DC01CB0198AB8FA70FC088EC90E00C
:104690009EA78DA78DA59EA50197F1F79EA78DA733
:1046A0008FA598A9019798AB8FA78FA598A9009778
:1046B00069F714C069A97AA98BA99CA90E9449002D
:1046C000DC01CB0198AB8FA78FA598A99CA78BA7DE
:1046D0008BA59CA50197F1F79CA78BA7A8E3B0E059
:1046E000E8E3F0E08081877F8C9380E090E0A0EAAF
:1046F000B0E48FA398A7A9A7BAA76FA178A589A5A9
:104700009AA520E030E04AEF54E40E941F02DC0149
:10471000CB018BA39CA3ADA3BEA36BA17CA18DA158
:104720009EA120E030E040E85FE30E94250488235A
:104730002CF481E090E09AA389A33FC06BA17CA1F7
:104740008DA19EA120E03FEF4FE757E40E94C503F3
:1047500018164CF56FA178A589A59AA520E030E040
:1047600040E251E40E941F02DC01CB01BC01CD01FB
:104770000E944900DC01CB019AA389A30FC088ECF9
:1047800090E098A38F8F8F8D98A10197F1F798A350
:104790008F8F89A19AA101979AA389A389A19AA130
:1047A000009769F714C06BA17CA18DA19EA10E9406
:1047B0004900DC01CB019AA389A389A19AA19E8F0C
:1047C0008D8F8D8D9E8D0197F1F79E8F8D8FEBE3F1
:1047D000F0E089AD882F90E082959295907F9827A0
:1047E000807F98278083A8E3B0E0E8E3F0E0808151
:1047F00088608C9380E090E0A0EAB0E4898F9A8F83
:10480000AB8FBC8F698D7A8D8B8D9C8D20E030E0D5
:104810004AEF54E40E941F02DC01CB018D8B9E8B7A
:10482000AF8BB88F6D897E898F89988D20E030E0BD
:1048300040E85FE30E94250488232CF481E090E0A7
:104840009C8B8B8B3FC06D897E898F89988D20E0F2
:104850003FEF4FE757E40E94C50318164CF5698DEA
:104860007A8D8B8D9C8D20E030E040E251E40E94F7
:104870001F02DC01CB01BC01CD010E944900DC011B
:10488000CB019C8B8B8B0FC088EC90E09A8B898B33
:1048900089899A890197F1F79A8B898B8B899C89F1
:1048A00001979C8B8B8B8B899C89009769F714C02F
:1048B0006D897E898F89988D0E944900DC01CB012A
:1048C0009C8B8B8B8B899C89988B8F878F85988904
:1048D0000197F1F7988B8F87A8E3B0E0E8E3F0E069
:1048E0008081877F8C9380E090E0A0EAB0E48B87A2
:1048F0009C87AD87BE876B857C858D859E8520E0F6
:1049000030E04AEF54E40E941F02DC01CB018F83A8
:104910009887A987BA876F81788589859A8520E0ED
:1049200030E040E85FE30E94250488232CF481E016
:1049300090E09E838D833FC06F81788589859A85BD
:1049400020E03FEF4FE757E40E94C50318164CF5EF
:104950006B857C858D859E8520E030E040E251E4CA
:104960000E941F02DC01CB01BC01CD010E94490065
:10497000DC01CB019E838D830FC088EC90E09C838B
:104980008B838B819C810197F1F79C838B838D8135
:104990009E8101979E838D838D819E81009769F70B
:1049A00014C06F81788589859A850E944900DC0151
:1049B000CB019E838D838D819E819A83898389819A
:1049C0009A810197F1F79A838983E9960FB6F89453
:1049D000DEBF0FBECDBFCF91DF910895DF93CF93A0
:1049E000CDB7DEB72E970FB6F894DEBF0FBECDBFA2
:1049F00081E00E94A32080E090E0A0EAB0E48B87F1
:104A00009C87AD87BE876B857C858D859E8520E0E4
:104A100030E04AEF54E40E941F02DC01CB018F8397
:104A20009887A987BA876F81788589859A8520E0DC
:104A300030E040E85FE30E94250488232CF481E005
:104A400090E09E838D833FC06F81788589859A85AC
:104A500020E03FEF4FE757E40E94C50318164CF5DE
:104A60006B857C858D859E8520E030E040E251E4B9
:104A70000E941F02DC01CB01BC01CD010E94490054
:104A8000DC01CB019E838D830FC088EC90E09C837A
:104A90008B838B819C810197F1F79C838B838D8124
:104AA0009E8101979E838D838D819E81009769F7FA
:104AB00014C06F81788589859A850E944900DC0140
:104AC000CB019E838D838D819E819A838983898189
:104AD0009A810197F1F79A8389832E960FB6F894FD
:104AE000DEBF0FBECDBFCF91DF910895DF93CF938F
:104AF000CDB7DEB76A970FB6F894DEBF0FBECDBF55
:104B0000898F6A8F898D882F90E0002496958795EC
:104B10000794969587950794982F802D8068982FF5
:104B20008A8D890F0E94A32080E090E0A8E4B2E47F
:104B30008D8B9E8BAF8BB88F6D897E898F89988D79
:104B40002BEA3AEA4AE250E40E941F02DC01CB0160
:104B5000898B9A8BAB8BBC8B69897A898B899C8971
:104B600020E030E040E85FE30E94250488231CF445
:104B700081E0888B91C069897A898B899C8920E042
:104B800030E04FE753E40E94C50318160CF07BC0D9
:104B90006D897E898F89988D20E030E04AE754E462
:104BA0000E941903DC01CB018C879D87AE87BF87EC
:104BB0006C857D858E859F8520E030E04AEF54E44A
:104BC0000E941F02DC01CB0188879987AA87BB87D7
:104BD000688579858A859B8520E030E040E85FE341
:104BE0000E94250488232CF481E090E09F838E832B
:104BF0003FC0688579858A859B8520E03FEF4FE738
:104C000057E40E94C50318164CF56C857D858E858A
:104C10009F8520E030E040E251E40E941F02DC0169
:104C2000CB01BC01CD010E944900DC01CB019F8377
:104C30008E830FC088EC90E09D838C838C819D8156
:104C40000197F1F79D838C838E819F8101979F83CC
:104C50008E838E819F81009769F724C0688579854E
:104C60008A859B850E944900DC01CB019F838E834E
:104C70008E819F819B838A838A819B810197F1F733
:104C80009B838A830FC069897A898B899C890E945A
:104C90004900DC01CB01888B8889898389818A95C9
:104CA000F1F789836A960FB6F894DEBF0FBECDBFC9
:104CB000CF91DF9108950F931F93DF93CF93CDB7DB
:104CC000DEB7C654D0400FB6F894DEBF0FBECDBFDE
:104CD00083E062E040E00E94BB0983E062E041E0E3
:104CE0000E94BB0980E00E944D0881E060E041E045
:104CF0000E94BB0981E061E041E00E94BB0981E0C4
:104D000062E041E00E94BB0981E063E041E00E9473
:104D1000BB090E9481190E94522A78940E94BD0CFE
:104D2000FE01ED5BFF4F80E090E0A0E2B1E4808304
:104D30009183A283B3838E01015C1F4FFE01ED5B63
:104D4000FF4F608171818281938120E030E04AEFE2
:104D500054E40E941F02DC01CB01F801808391839F
:104D6000A283B383FE01FF9660817181828193816A
:104D700020E030E040E85FE30E94250488232CF423
:104D800081E090E09EAF8DAF46C0FE01FF9660814E
:104D900071818281938120E03FEF4FE757E40E94C9
:104DA000C503181664F5FE01ED5BFF4F608171814C
:104DB0008281938120E030E040E251E40E941F02B2
:104DC000DC01CB01BC01CD010E944900DC01CB011B
:104DD0009EAF8DAF0FC088EC90E09CAF8BAF8BADDA
:104DE0009CAD0197F1F79CAF8BAF8DAD9EAD019758
:104DF0009EAF8DAF8DAD9EAD009769F716C0FE01D9
:104E0000FF9660817181828193810E944900DC015B
:104E1000CB019EAF8DAF8DAD9EAD9AAF89AF89AD01
:104E20009AAD0197F1F79AAF89AF80E090E00E94C8
:104E3000D40DAA2797FDA095BA2FBC01CD010E94E1
:104E40005504DC01CB018093A6019093A701A093A8
:104E5000A801B093A90181E090E00E94D40DAA2797
:104E600097FDA095BA2FBC01CD010E945504DC012D
:104E7000CB018093AA019093AB01A093AC01B093B6
:104E8000AD018091A6019091A701A091A801B091D8
:104E9000A901BC01CD0120E030E04AEF53E40E94BB
:104EA0001F02DC01CB01BC01CD0120E030EC4FE75B
:104EB00054E40E941903DC01CB018093AE0190936E
:104EC000AF01A093B001B093B1018091AA0190917C
:104ED000AB01A091AC01B091AD01BC01CD0120E0CE
:104EE00030E04AEF53E40E941F02DC01CB01BC0119
:104EF000CD0120E030EC4FE754E40E941903DC01BF
:104F0000CB018093B2019093B301A093B401B0930D
:104F1000B5018091AE019091AF01A091B001B09127
:104F2000B1012091B2013091B3014091B40150918F
:104F3000B501BC01CD010E94C101DC01CB01809310
:104F4000C2019093C301A093C401B093C50181E055
:104F50000E94521781E061E00E94401D80E690E0CF
:104F60000E945B1C8091C2019091C301A091C40179
:104F7000B091C501BC01CD010E944900DC01CB010B
:104F8000BC01CD010E94781C82E068E00E94401DB7
:104F90008091C6019091C701A091C801B091C9014B
:104FA00024ED31E0B9014AE050E00E94042F84ED85
:104FB00091E00E94FB2E8C529E4F28E630E0B90112
:104FC00046E050E00E94F22E84ED91E00E945B1CCE
:104FD0008091C6019091C701A091C801B091C9010B
:104FE000BC01CD010E94781C80E090E0A0E7B1E414
:104FF0008DAB9EABAFABB8AF6DA97EA98FA998ADB5
:1050000020E030E04AEF54E40E941F02DC01CB01B3
:1050100089AB9AABABABBCAB69A97AA98BA99CA9AC
:1050200020E030E040E85FE30E94250488232CF470
:1050300081E090E098AB8FA73FC069A97AA98BA9BE
:105040009CA920E03FEF4FE757E40E94C5031816E4
:105050004CF56DA97EA98FA998AD20E030E040E223
:1050600051E40E941F02DC01CB01BC01CD010E9472
:105070004900DC01CB0198AB8FA70FC088EC90E012
:105080009EA78DA78DA59EA50197F1F79EA78DA739
:105090008FA598A9019798AB8FA78FA598A900977E
:1050A00069F714C069A97AA98BA99CA90E94490033
:1050B000DC01CB0198AB8FA78FA598A99CA78BA7E4
:1050C0008BA59CA50197F1F79CA78BA70E941F2C8D
:1050D0008091D0019091D101A091D201B091D301E2
:1050E0008A3F9105A105B10508F09FCE8091D001BE
:1050F0009091D101A091D201B091D3010097A10567
:10510000B10509F492CE8091C2019091C301A091A2
:10511000C401B091C501BC01CD0120E030E04AEAF4
:1051200052E40E94C50318160CF07FCE8091C60190
:105130009091C701A091C801B091C9018336910532
:10514000A105B10508F071CE8091C6019091C7010B
:10515000A091C801B091C9010196A11DB11D809314
:10516000C6019093C701A093C801B093C90182E022
:1051700068E00E94401D8091C6019091C701A091F6
:10518000C801B091C90124ED31E0B9014AE050E015
:105190000E94042F84ED91E00E94FB2E8C529E4FC2
:1051A00028E630E0B90146E050E00E94F22E84ED9E
:1051B00091E00E945B1C8091C6019091C701A09173
:1051C000C801B091C901BC01CD010E94781C81E0E9
:1051D00061E041E00E94B50A80E090E0AAEFB3E40C
:1051E0008FA398A7A9A7BAA76FA178A589A59AA503
:1051F00020E030E04AEF54E40E941F02DC01CB01C2
:105200008BA39CA3ADA3BEA36BA17CA18DA19EA1EA
:1052100020E030E040E85FE30E94250488232CF47E
:1052200081E090E09AA389A33FC06BA17CA18DA1EE
:105230009EA120E03FEF4FE757E40E94C5031816F8
:105240004CF56FA178A589A59AA520E030E040E251
:1052500051E40E941F02DC01CB01BC01CD010E9480
:105260004900DC01CB019AA389A30FC088EC90E030
:1052700098A38F8F8F8D98A10197F1F798A38F8FA7
:1052800089A19AA101979AA389A389A19AA10097BC
:1052900069F714C06BA17CA18DA19EA10E94490059
:1052A000DC01CB019AA389A389A19AA19E8F8D8F3E
:1052B0008D8D9E8D0197F1F79E8F8D8F81E061E03E
:1052C00040E00E94B50A80E090E8ABEBB4E4898F3F
:1052D0009A8FAB8FBC8F698D7A8D8B8D9C8D20E0E2
:1052E00030E04AEF54E40E941F02DC01CB018D8BB9
:1052F0009E8BAF8BB88F6D897E898F89988D20E0CA
:1053000030E040E85FE30E94250488232CF481E02C
:1053100090E09C8B8B8B3FC06D897E898F89988DA7
:1053200020E03FEF4FE757E40E94C50318164CF505
:10533000698D7A8D8B8D9C8D20E030E040E251E4C8
:105340000E941F02DC01CB01BC01CD010E9449007B
:10535000DC01CB019C8B8B8B0FC088EC90E09A8B8F
:10536000898B89899A890197F1F79A8B898B8B8927
:105370009C8901979C8B8B8B8B899C89009769F703
:1053800014C06D897E898F89988D0E944900DC0147
:10539000CB019C8B8B8B8B899C89988B8F878F857E
:1053A00098890197F1F7988B8F8781E060E041E061
:1053B0000E94B50A80E090E0AAEFB3E48B879C8757
:1053C000AD87BE876B857C858D859E8520E030E02E
:1053D0004AEF54E40E941F02DC01CB018F839887BF
:1053E000A987BA876F81788589859A8520E030E022
:1053F00040E85FE30E94250488232CF481E090E0DC
:105400009E838D833FC06F81788589859A8520E052
:105410003FEF4FE757E40E94C50318164CF56B8524
:105420007C858D859E8520E030E040E251E40E943D
:105430001F02DC01CB01BC01CD010E944900DC014F
:10544000CB019E838D830FC088EC90E09C838B837F
:105450008B819C810197F1F79C838B838D819E8149
:1054600001979E838D838D819E81009769F714C07B
:105470006F81788589859A850E944900DC01CB017E
:105480009E838D838D819E819A83898389819A8170
:105490000197F1F79A83898381E060E040E00E9400
:1054A000B50AC3CCDF93CF93CDB7DEB7A1E3B0E0AD
:1054B000E1E3F0E0808181608C93A1E3B0E0E1E37F
:1054C000F0E08081877F8C93A2E3B0E0E2E3F0E03C
:1054D000808188608C930E94062D0E948A1ECF9145
:1054E000DF910895DF93CF93CDB7DEB7AA970FB6BC
:1054F000F894DEBF0FBECDBF8091C6019091C70169
:10550000A091C801B091C9010097A105B10509F4A6
:105510008DC182E068E00E94401D8091C60190919B
:10552000C701A091C801B091C9010197A109B109B2
:105530008093C6019093C701A093C801B093C9019D
:105540008091C6019091C701A091C801B091C90195
:10555000BC01CD010E94781C81E062E041E00E9424
:10556000B50A80E090E0AAEFB3E48FA398A7A9A7BB
:10557000BAA76FA178A589A59AA520E030E04AEFE7
:1055800054E40E941F02DC01CB018BA39CA3ADA3BA
:10559000BEA36BA17CA18DA19EA120E030E040E8DC
:1055A0005FE30E94250488232CF481E090E09AA315
:1055B00089A33FC06BA17CA18DA19EA120E03FEFFC
:1055C0004FE757E40E94C50318164CF56FA178A564
:1055D00089A59AA520E030E040E251E40E941F0234
:1055E000DC01CB01BC01CD010E944900DC01CB01F3
:1055F0009AA389A30FC088EC90E098A38F8F8F8D1A
:1056000098A10197F1F798A38F8F89A19AA101978B
:105610009AA389A389A19AA1009769F714C06BA1E5
:105620007CA18DA19EA10E944900DC01CB019AA31F
:1056300089A389A19AA19E8F8D8F8D8D9E8D0197B3
:10564000F1F79E8F8D8F81E062E040E00E94B50A05
:1056500080E090E8ABEBB4E4898F9A8FAB8FBC8F7E
:10566000698D7A8D8B8D9C8D20E030E04AEF54E47B
:105670000E941F02DC01CB018D8B9E8BAF8BB88FFC
:105680006D897E898F89988D20E030E040E85FE366
:105690000E94250488232CF481E090E09C8B8B8B66
:1056A0003FC06D897E898F89988D20E03FEF4FE75D
:1056B00057E40E94C50318164CF5698D7A8D8B8DC1
:1056C0009C8D20E030E040E251E40E941F02DC01AA
:1056D000CB01BC01CD010E944900DC01CB019C8BB8
:1056E0008B8B0FC088EC90E09A8B898B89899A8983
:1056F0000197F1F79A8B898B8B899C8901979C8BF9
:105700008B8B8B899C89009769F714C06D897E8982
:105710008F89988D0E944900DC01CB019C8B8B8B7B
:105720008B899C89988B8F878F8598890197F1F752
:10573000988B8F8781E063E041E00E94B50A80E0AA
:1057400090E0AAEFB3E48B879C87AD87BE876B851B
:105750007C858D859E8520E030E04AEF54E40E94F0
:105760001F02DC01CB018F839887A987BA876F81DD
:10577000788589859A8520E030E040E85FE30E94E3
:10578000250488232CF481E090E09E838D833FC024
:105790006F81788589859A8520E03FEF4FE757E450
:1057A0000E94C50318164CF56B857C858D859E85FA
:1057B00020E030E040E251E40E941F02DC01CB0116
:1057C000BC01CD010E944900DC01CB019E838D8389
:1057D0000FC088EC90E09C838B838B819C81019728
:1057E000F1F79C838B838D819E8101979E838D83AE
:1057F0008D819E81009769F714C06F8178858985B6
:105800009A850E944900DC01CB019E838D838D81A6
:105810009E819A83898389819A810197F1F79A837E
:10582000898381E063E040E00E94B50AAA960FB642
:10583000F894DEBF0FBECDBFCF91DF910895DF9307
:10584000CF93CDB7DEB768970FB6F894DEBF0FBE23
:10585000CDBF8091CA01882309F0CFC0A2E3B0E098
:10586000E2E3F0E0808181608C9380E090E0A0E74B
:10587000B1E48D8B9E8BAF8BB88F6D897E898F89BC
:10588000988D2BEA3AEA4AE250E40E941F02DC01BA
:10589000CB01898B9A8BAB8BBC8B69897A898B897D
:1058A0009C8920E030E040E85FE30E9425048823E3
:1058B0001CF481E0888B91C069897A898B899C89E5
:1058C00020E030E04FE753E40E94C50318160CF0C7
:1058D0007BC06D897E898F89988D20E030E04AE712
:1058E00054E40E941903DC01CB018C879D87AE87AD
:1058F000BF876C857D858E859F8520E030E04AEFEF
:1059000054E40E941F02DC01CB0188879987AA8793
:10591000BB87688579858A859B8520E030E040E8F3
:105920005FE30E94250488232CF481E090E09F83AC
:105930008E833FC0688579858A859B8520E03FEF0F
:105940004FE757E40E94C50318164CF56C857D851A
:105950008E859F8520E030E040E251E40E941F02E6
:10596000DC01CB01BC01CD010E944900DC01CB016F
:105970009F838E830FC088EC90E09D838C838C8105
:105980009D810197F1F79D838C838E819F81019783
:105990009F838E838E819F81009769F724C06885DD
:1059A00079858A859B850E944900DC01CB019F8314
:1059B0008E838E819F819B838A838A819B810197BD
:1059C000F1F79B838A830FC069897A898B899C89C7
:1059D0000E944900DC01CB01888B888989838981F9
:1059E0008A95F1F78983A2E3B0E0E2E3F0E08081F9
:1059F0008E7F8C9381E08093CA0168960FB6F894ED
:105A0000DEBF0FBECDBFCF91DF910895DF93CF935F
:105A1000CDB7DEB7A5E5B0E0E5E5F0E080818460D4
:105A20008C93ABE5B0E0EBE5F0E0808180688C938F
:105A3000CF91DF9108951F920F920FB60F9211240C
:105A40002F933F934F935F936F937F938F939F9386
:105A5000AF93BF93EF93FF93DF93CF93CDB7DEB7B1
:105A60002E97DEBFCDBF8091CA01813009F0DCC026
:105A70008091CB01882379F4E2E5F0E0108281E0A7
:105A80008093CB011092CC011092CD011092CE01E7
:105A90001092CF01C9C08091CC019091CD01A0910D
:105AA000CE01B091CF012227382F492F5A2FE2E59E
:105AB000F0E08081882F90E0A0E0B0E0820F931F9B
:105AC000A41FB51F26E930E040E050E0BC01CD0145
:105AD0000E94992EDA01C9018093D0019093D101DF
